{
  "contractName": "Helloworld",
  "abi": [
    {
      "inputs": [
        {
          "internalType": "string",
          "name": "_message",
          "type": "string"
        }
      ],
      "stateMutability": "nonpayable",
      "type": "constructor"
    },
    {
      "inputs": [],
      "name": "message",
      "outputs": [
        {
          "internalType": "string",
          "name": "",
          "type": "string"
        }
      ],
      "stateMutability": "view",
      "type": "function"
    },
    {
      "inputs": [],
      "name": "owner",
      "outputs": [
        {
          "internalType": "address",
          "name": "",
          "type": "address"
        }
      ],
      "stateMutability": "view",
      "type": "function"
    },
    {
      "inputs": [],
      "name": "hello",
      "outputs": [
        {
          "internalType": "string",
          "name": "",
          "type": "string"
        }
      ],
      "stateMutability": "view",
      "type": "function"
    },
    {
      "inputs": [
        {
          "internalType": "string",
          "name": "_message",
          "type": "string"
        }
      ],
      "name": "setMessage",
      "outputs": [],
      "stateMutability": "payable",
      "type": "function"
    }
  ],
  "bytecode": "0x60806040523480156200001157600080fd5b506040516200097f3803806200097f8339818101604052810190620000379190620001ba565b80600090805190602001906200004f92919062000098565b5033600160006101000a81548173ffffffffffffffffffffffffffffffffffffffff021916908373ffffffffffffffffffffffffffffffffffffffff160217905550506200036f565b828054620000a69062000294565b90600052602060002090601f016020900481019282620000ca576000855562000116565b82601f10620000e557805160ff191683800117855562000116565b8280016001018555821562000116579182015b8281111562000115578251825591602001919060010190620000f8565b5b50905062000125919062000129565b5090565b5b80821115620001445760008160009055506001016200012a565b5090565b60006200015f620001598462000228565b620001ff565b9050828152602081018484840111156200017857600080fd5b620001858482856200025e565b509392505050565b600082601f8301126200019f57600080fd5b8151620001b184826020860162000148565b91505092915050565b600060208284031215620001cd57600080fd5b600082015167ffffffffffffffff811115620001e857600080fd5b620001f6848285016200018d565b91505092915050565b60006200020b6200021e565b9050620002198282620002ca565b919050565b6000604051905090565b600067ffffffffffffffff8211156200024657620002456200032f565b5b62000251826200035e565b9050602081019050919050565b60005b838110156200027e57808201518184015260208101905062000261565b838111156200028e576000848401525b50505050565b60006002820490506001821680620002ad57607f821691505b60208210811415620002c457620002c362000300565b5b50919050565b620002d5826200035e565b810181811067ffffffffffffffff82111715620002f757620002f66200032f565b5b80604052505050565b7f4e487b7100000000000000000000000000000000000000000000000000000000600052602260045260246000fd5b7f4e487b7100000000000000000000000000000000000000000000000000000000600052604160045260246000fd5b6000601f19601f8301169050919050565b610600806200037f6000396000f3fe60806040526004361061003f5760003560e01c806319ff1d2114610044578063368b87721461006f5780638da5cb5b1461008b578063e21f37ce146100b6575b600080fd5b34801561005057600080fd5b506100596100e1565b60405161006691906103f0565b60405180910390f35b6100896004803603810190610084919061034c565b610173565b005b34801561009757600080fd5b506100a061018d565b6040516100ad91906103d5565b60405180910390f35b3480156100c257600080fd5b506100cb6101b3565b6040516100d891906103f0565b60405180910390f35b6060600080546100f0906104f8565b80601f016020809104026020016040519081016040528092919081815260200182805461011c906104f8565b80156101695780601f1061013e57610100808354040283529160200191610169565b820191906000526020600020905b81548152906001019060200180831161014c57829003601f168201915b5050505050905090565b8060009080519060200190610189929190610241565b5050565b600160009054906101000a900473ffffffffffffffffffffffffffffffffffffffff1681565b600080546101c0906104f8565b80601f01602080910402602001604051908101604052809291908181526020018280546101ec906104f8565b80156102395780601f1061020e57610100808354040283529160200191610239565b820191906000526020600020905b81548152906001019060200180831161021c57829003601f168201915b505050505081565b82805461024d906104f8565b90600052602060002090601f01602090048101928261026f57600085556102b6565b82601f1061028857805160ff19168380011785556102b6565b828001600101855582156102b6579182015b828111156102b557825182559160200191906001019061029a565b5b5090506102c391906102c7565b5090565b5b808211156102e05760008160009055506001016102c8565b5090565b60006102f76102f284610437565b610412565b90508281526020810184848401111561030f57600080fd5b61031a8482856104b6565b509392505050565b600082601f83011261033357600080fd5b81356103438482602086016102e4565b91505092915050565b60006020828403121561035e57600080fd5b600082013567ffffffffffffffff81111561037857600080fd5b61038484828501610322565b91505092915050565b61039681610484565b82525050565b60006103a782610468565b6103b18185610473565b93506103c18185602086016104c5565b6103ca816105b9565b840191505092915050565b60006020820190506103ea600083018461038d565b92915050565b6000602082019050818103600083015261040a818461039c565b905092915050565b600061041c61042d565b9050610428828261052a565b919050565b6000604051905090565b600067ffffffffffffffff8211156104525761045161058a565b5b61045b826105b9565b9050602081019050919050565b600081519050919050565b600082825260208201905092915050565b600061048f82610496565b9050919050565b600073ffffffffffffffffffffffffffffffffffffffff82169050919050565b82818337600083830152505050565b60005b838110156104e35780820151818401526020810190506104c8565b838111156104f2576000848401525b50505050565b6000600282049050600182168061051057607f821691505b602082108114156105245761052361055b565b5b50919050565b610533826105b9565b810181811067ffffffffffffffff821117156105525761055161058a565b5b80604052505050565b7f4e487b7100000000000000000000000000000000000000000000000000000000600052602260045260246000fd5b7f4e487b7100000000000000000000000000000000000000000000000000000000600052604160045260246000fd5b6000601f19601f830116905091905056fea2646970667358221220d0c56d9ab06438bff0afbd5fd5bdd3efa5f143e75aaeee99d97b1db907e1632664736f6c63430008040033",
  "immutableReferences": {},
  "source": "// SPDX-License-Identifier: MIT\r\npragma solidity 0.8.4;\r\ncontract Helloworld {\r\n\r\n    string public message;\r\n    address public owner;\r\n    constructor(string memory _message) {\r\n        message = _message;\r\n        //message = \"CUSTOM MESSAGE\" ;\r\n        owner = msg.sender;\r\n    }\r\n\r\n    function hello() public view returns (string memory) {\r\n        return message;\r\n    }\r\n    function setMessage(string memory _message) public payable {\r\n        //require(msg.sender == owner);\r\n        message = _message;\r\n    }\r\n}",
  "sourcePath": "/Users/harithanallamothu/Documents/truffle/contracts/HelloWorld.sol",
  "compiler": {
    "name": "solc",
    "version": "0.8.4+commit.c7e474f2.Emscripten.clang"
  },
  "schemaVersion": "3.4.10",
  "updatedAt": "2022-10-16T20:22:06.643Z",
  "devdoc": {
    "kind": "dev",
    "methods": {},
    "version": 1
  },
  "userdoc": {
    "kind": "user",
    "methods": {},
    "version": 1
  }
}